:100000000208D8E4FFEFC39423748094805012E474
:10001000FEEEC394237480948050030E80F30F800F
:02002000E422D8
:10002300020026C0E0C0D075D000C006C0073098DB
:1000330010AF99EF641B7009C280120003D280C213
:1000430098D007D006D0D0D0E032E4FEFDED90008A
:100053009D936F60030D80F5ED2430FEEDFB7A0078
:10006300640A70027E2AEB640B4A70027E23AF0699
:1000730022C2B475C83075CADC75CCDC75CBFF758C
:10008300CDFFD2CA759850D2ACD2AF22D2B4C299A6
:100093008F993099FDC299C2B4227BE7EBEDD7DB90
:0A00A300DDB7BBBD777D7FBFDFEF47
:10080000E4FCD208120074EC9000A993F5A085A036
:1008100020A2028201820340163008EBC280AF2082
:1008200012004D12008F120003D280C20880D8EC53
:10083000C394037480948050030C8002E4FCD208BB
:0208400080C571
:0C08D800787FE4F6D8FD7581210208004D
:00000001FF
