:100000000208D3020088D2B4C2998F993099FDC2F8
:0900100099C2B42212002680FE00
:03001B0002005A86
:1000230002080075080A75090AC2B453890F438987
:1000330020D28EE4F58BF58D75C83075CADC75CC8E
:10004300DC75CBFF75CDFFD2CA759850D288D2A884
:10005300D2ABD2ACD2AF22C0E0C083C082C0D075D5
:10006300D000C007AF09EF90009F9390FE00F0AF60
:1000730008EF90009F9390FD00F0D007D0D0D0827E
:10008300D083D0E032C0D075D000C0077F1B1200F0
:100093000675080A75090AD007D0D0323F065B4FB0
:0700A300666D7D077F6F40D1
:10080000C0E0C0D075D000C007309839E599B43049
:1008100006750900750800E599642B7026AF08C3BA
:10082000EF940974809480500405088016750800C0
:10083000AF09C3EF940974809480500405098003C4
:0C084000750900C298D007D0D0D0E0327B
:0C08D300787FE4F6D8FD7581090200145E
:00000001FF
