:10000000020C45E4FFEFC39428748094805012E4FE
:10001000FEEEC394287480948050030E80F30F800A
:02002000E422D8
:1000230002080012026275A083D2A6120248C2A679
:10003300120255D2A6120248C2A6120248D2A61232
:100043000248C2A6120248C2A0D2A6120248C2A601
:100053001202487F281201457F011201457F0812D1
:1000630001457F0C1201457F061201457F0F1201E6
:10007300457F01020145AC07EC3395E04F7007ED76
:100083002480FF120145ECFF3395E0FEEF64014E3F
:100093007007ED24C0FF120145ECFF3395E0FEEF3E
:1000A30064024E7007ED2490FF120145AF04EF3355
:1000B30095E0FEEF64034E7007ED24D0FF12014577
:1000C30022BB010689828A83E0225002E722BBFE1B
:1000D30002E32289828A83E49322BB010CE582290D
:1000E300F582E5833AF583E0225006E92582F8E6B6
:1000F30022BBFE06E92582F8E222E58229F582E5A4
:10010300833AF583E493228B0E8A0F8910E4FF125E
:1001130001ECAB0EE5102410F9E4350FFA7F011260
:1001230001ECAB0EE5102420F9E4350FFA7F02123F
:1001330001ECAB0EE5102430F9E4350FFA7F03022E
:1001430001ECC2A4C2A5EFC4540F53A0F042A0D245
:10015300A6C2A6EF540F53A0F042A0D2A6C2A64354
:10016300A00FD2A5C2A4D20030000ED2A6A2A392A1
:1001730000C2A6D2A6C2A680EF22D2A4C2A5EFC413
:10018300540F53A0F042A0D2A6C2A6EF540F53A01F
:10019300F042A0D2A6C2A643A00FD2A5C2A4D20108
:1001A30030010ED2A6A2A39201C2A6D2A6C2A680F5
:1001B300EF227BFF7A0379AD7D4012021B7BFF7A2E
:1001C3000379B57D4812021B7BFF7A0379BD7D500D
:1001D30012021B7BFF7A0379C57D5812021B7BFF3A
:1001E3007A0379CD7D6002021B8B118A128913E495
:1001F300FD120079EDFF3395E0FEC3EF9410EE643A
:100203008094805012AB110513E513AA12700205F6
:10021300121202C00D80DD228B0E8A0F8910AF05EA
:10022300120145E4FDEDC39408748094805015AB2E
:100233000EAA0FA9108D827583001200DDFF120133
:100243007D0D80E1227516047515E0D515FDD516D3
:10025300FA22751614751570D515FDD516FA227583
:1002630016C3751589D515FDD516FA228B088A098B
:10027300890A120079AB08AA09A90A1200C4600D01
:10028300050AE50A700205091202C080E822C2B419
:1002930075C82075CADC75CCDC75CBFF75CDFF75D1
:1002A3009850D2ACD2AFD2CA2212029112002612B7
:1002B30001B57BFF7A03792B12010A80FE14F91230
:1002C30000C4FF02017D20506F637A656B616A2071
:1002D3002020202020200020506F637A656B616A04
:1002E3002E2020202020200020506F637A656B6130
:1002F3006A2E2E20202020200020506F637A656B09
:10030300616A2E2E2E2020202000476F746F7765A0
:100313002021004F6462696572616D3A004F646524
:100323006272616E6F202100536573742E205762D1
:1003330075646F77616E65202D2D2D2D2D2D2D2D3F
:100343002D2D2D2D2D2D2D2D2044616E69696C20B1
:10035300426F7279736F76202D2D2D2D2D2D2D2D1E
:100363002D2D2D2D2D2D2D2D002020496E666F72E4
:100373006D61636A61206F20202020202041757405
:100383006F727A653A202020204E722E416C62757E
:100393006D753A20333536323347727570613A20C2
:1003A300202020202049442D3100001008040201A0
:1003B300000010101010101010001818181818183A
:1003C30018001C1C1C1C1C1C1C001E1E1E1E1E1E9A
:0203D3001E000A
:10080000C0E0C0F0C083C082C0D075D000C000C0BE
:1008100001C002C003C004C005C006C00720980381
:10082000020971AF99EF641B70097BFF7A03792B82
:1008300012010AE599B431097BFF7A03796C120140
:100840000AE599643260030209067F011201457FBF
:100850000C1201457BFF7A0279C9E4FD7F01120287
:100860006F751400C3E51494087480948050747BF1
:10087000FF7A0279DAE4FD7F0112026F7D0D7F01BC
:100880001200797F7C1202C61200037BFF7A027984
:10089000EBE4FD7F0112026F7D0D7F011200797F75
:1008A0002F1202C61200037BFF7A0279FCE4FD7F5F
:1008B0000112026F7D0D7F011200797F2D1202C699
:1008C0001200037BFF7A0279C9E4FD7F0112026FF7
:1008D0007D0D7F01120079E4FF1202C612000305AC
:1008E0001480817F011201457F0C1201457BFF7A44
:1008F00003790D7D047F0112026F7D077F021200D4
:10090000797FBC1202C6E599643370637F011201DE
:10091000457F0C1201457BFF7A0379167D037F0129
:1009200012026F751800C3E51894107480948050FB
:1009300031751900C3E519940574809480501FAD7A
:10094000187F02120079E51964046006E51904FFB6
:1009500080027FFF1202C6120003051980D6051817
:1009600080C47BFF7A0379207D037F0112026FC26E
:1009700098D007D006D005D004D003D002D001D043
:0C09800000D0D0D082D083D0F0D0E03284
:0C0C4500787FE4F6D8FD7581200202AC37
:00000001FF
