:1000000002094B0200B1D2B4C2998F993099FDC256
:0900100099C2B42212007180FEB5
:03001B00020026BA
:10002300020800C0E0C0D075D000C007AF08EF6081
:1000330032AF08EFF46026E50AC395085006D2A450
:10004300D2A38004C2A4C2A3AF0AC3EF94FF7480F7
:1000530094805004050A800F750A00800AD2A4D246
:10006300A38004C2A4C2A3D007D0D0D0E032E4F569
:1000730009F50AF508D2A1C2A2C2A3D2A5C2A6C29B
:10008300A4C2B453890F438920D28EF58BF58D75A5
:10009300C83075CADC75CCDC75CBFF75CDFFD2CA11
:1000A300759850D288C2A8D2ABD2ACD2AF22C0E0EE
:1000B300C0D075D000C007AF09C3EF940A74809411
:1000C30080500905097F2B12000680087509007509
:0B00D3000800C2A8D007D0D0D0E03257
:10080000C0E0C0D075D000C007309872AF99EF64D7
:100810001B700EC2A8F509F508D2A5D2A1C2A6C2C6
:10082000A2E599B43403750800E599B43503750859
:1008300033E599B43603750866E599B4370375084E
:1008400099E599B438037508CCE599B4390375086E
:10085000FFE599B42A0D30A106C2A1D2A28004D22C
:10086000A1C2A2E599B4230D30A506C2A5D2A680E7
:1008700004D2A5C2A6E599B43002D2A8C298D00786
:05088000D0D0D0E032F1
:0C094B00787FE4F6D8FD75810A020014E4
:00000001FF
